{
	"3DataTypes.sol": {
		"DataTypes": {
			"abi": [
				{
					"inputs": [],
					"name": "Boo",
					"outputs": [
						{
							"internalType": "bool",
							"name": "",
							"type": "bool"
						}
					],
					"stateMutability": "view",
					"type": "function"
				},
				{
					"inputs": [],
					"name": "MaxInt",
					"outputs": [
						{
							"internalType": "int8",
							"name": "",
							"type": "int8"
						}
					],
					"stateMutability": "view",
					"type": "function"
				},
				{
					"inputs": [],
					"name": "MaxUInt",
					"outputs": [
						{
							"internalType": "uint8",
							"name": "",
							"type": "uint8"
						}
					],
					"stateMutability": "view",
					"type": "function"
				},
				{
					"inputs": [],
					"name": "MinInt",
					"outputs": [
						{
							"internalType": "int8",
							"name": "",
							"type": "int8"
						}
					],
					"stateMutability": "view",
					"type": "function"
				},
				{
					"inputs": [],
					"name": "add",
					"outputs": [
						{
							"internalType": "address",
							"name": "",
							"type": "address"
						}
					],
					"stateMutability": "view",
					"type": "function"
				},
				{
					"inputs": [],
					"name": "minUInt",
					"outputs": [
						{
							"internalType": "uint8",
							"name": "",
							"type": "uint8"
						}
					],
					"stateMutability": "view",
					"type": "function"
				}
			],
			"devdoc": {
				"kind": "dev",
				"methods": {},
				"version": 1
			},
			"evm": {
				"assembly": "    /* \"3DataTypes.sol\":350:960  contract DataTypes{... */\n  mstore(0x40, 0x80)\n    /* \"3DataTypes.sol\":387:388  1 */\n  0x01\n    /* \"3DataTypes.sol\":375:388  uint8 one = 1 */\n  0x00\n  dup1\n  0x0100\n  exp\n  dup2\n  sload\n  dup2\n  0xff\n  mul\n  not\n  and\n  swap1\n  dup4\n  0xff\n  and\n  mul\n  or\n  swap1\n  sstore\n  pop\n    /* \"3DataTypes.sol\":469:484  type(uint8).max */\n  0xff\n    /* \"3DataTypes.sol\":446:484  uint8 public MaxUInt = type(uint8).max */\n  0x00\n  exp(0x0100, 0x01)\n  dup2\n  sload\n  dup2\n  0xff\n  mul\n  not\n  and\n  swap1\n  dup4\n  0xff\n  and\n  mul\n  or\n  swap1\n  sstore\n  pop\n    /* \"3DataTypes.sol\":513:528  type(uint8).min */\n  0x00\n    /* \"3DataTypes.sol\":490:528  uint8 public minUInt = type(uint8).min */\n  dup1\n  exp(0x0100, 0x02)\n  dup2\n  sload\n  dup2\n  0xff\n  mul\n  not\n  and\n  swap1\n  dup4\n  0xff\n  and\n  mul\n  or\n  swap1\n  sstore\n  pop\n    /* \"3DataTypes.sol\":598:612  type(int8).max */\n  0x7f\n    /* \"3DataTypes.sol\":577:612  int8 public MaxInt = type(int8).max */\n  0x00\n  exp(0x0100, 0x03)\n  dup2\n  sload\n  dup2\n  0xff\n  mul\n  not\n  and\n  swap1\n  dup4\n  0x00\n  signextend\n  0xff\n  and\n  mul\n  or\n  swap1\n  sstore\n  pop\n    /* \"3DataTypes.sol\":679:693  type(int8).min */\n  0xffffffffffffffffffffffffffffffffffffffffffffffffffffffffffffff80\n    /* \"3DataTypes.sol\":658:693  int8 public MinInt = type(int8).min */\n  0x00\n  exp(0x0100, 0x04)\n  dup2\n  sload\n  dup2\n  0xff\n  mul\n  not\n  and\n  swap1\n  dup4\n  0x00\n  signextend\n  0xff\n  and\n  mul\n  or\n  swap1\n  sstore\n  pop\n    /* \"3DataTypes.sol\":759:763  true */\n  0x01\n    /* \"3DataTypes.sol\":741:763  bool public Boo = true */\n  0x00\n  exp(0x0100, 0x05)\n  dup2\n  sload\n  dup2\n  0xff\n  mul\n  not\n  and\n  swap1\n  dup4\n  iszero\n  iszero\n  mul\n  or\n  swap1\n  sstore\n  pop\n    /* \"3DataTypes.sol\":791:833  0x0000000000000000000000000000000000000000 */\n  0x00\n    /* \"3DataTypes.sol\":770:833  address public add = 0x0000000000000000000000000000000000000000 */\n  dup1\n  exp(0x0100, 0x06)\n  dup2\n  sload\n  dup2\n  0xffffffffffffffffffffffffffffffffffffffff\n  mul\n  not\n  and\n  swap1\n  dup4\n  0xffffffffffffffffffffffffffffffffffffffff\n  and\n  mul\n  or\n  swap1\n  sstore\n  pop\n    /* \"3DataTypes.sol\":851:855  0xb5 */\n  0xb5\n    /* \"3DataTypes.sol\":840:855  bytes1 a = 0xb5 */\n  0xf8\n  shl\n  0x00\n  exp(0x0100, 0x1a)\n  dup2\n  sload\n  dup2\n  0xff\n  mul\n  not\n  and\n  swap1\n  dup4\n  0xf8\n  shr\n  mul\n  or\n  swap1\n  sstore\n  pop\n    /* \"3DataTypes.sol\":922:926  0xe2 */\n  0xe2\n    /* \"3DataTypes.sol\":911:926  bytes1 b = 0xe2 */\n  0xf8\n  shl\n  0x00\n  exp(0x0100, 0x1b)\n  dup2\n  sload\n  dup2\n  0xff\n  mul\n  not\n  and\n  swap1\n  dup4\n  0xf8\n  shr\n  mul\n  or\n  swap1\n  sstore\n  pop\n    /* \"3DataTypes.sol\":350:960  contract DataTypes{... */\n  callvalue\n  dup1\n  iszero\n  tag_1\n  jumpi\n  0x00\n  dup1\n  revert\ntag_1:\n  pop\n  dataSize(sub_0)\n  dup1\n  dataOffset(sub_0)\n  0x00\n  codecopy\n  0x00\n  return\nstop\n\nsub_0: assembly {\n        /* \"3DataTypes.sol\":350:960  contract DataTypes{... */\n      mstore(0x40, 0x80)\n      callvalue\n      dup1\n      iszero\n      tag_1\n      jumpi\n      0x00\n      dup1\n      revert\n    tag_1:\n      pop\n      jumpi(tag_2, lt(calldatasize, 0x04))\n      shr(0xe0, calldataload(0x00))\n      dup1\n      0x08112fe3\n      eq\n      tag_3\n      jumpi\n      dup1\n      0x17b73261\n      eq\n      tag_4\n      jumpi\n      dup1\n      0x3bead474\n      eq\n      tag_5\n      jumpi\n      dup1\n      0x4f2be91f\n      eq\n      tag_6\n      jumpi\n      dup1\n      0x8e93b09e\n      eq\n      tag_7\n      jumpi\n      dup1\n      0xba154365\n      eq\n      tag_8\n      jumpi\n    tag_2:\n      0x00\n      dup1\n      revert\n        /* \"3DataTypes.sol\":741:763  bool public Boo = true */\n    tag_3:\n      tag_9\n      tag_10\n      jump\t// in\n    tag_9:\n      mload(0x40)\n      tag_11\n      swap2\n      swap1\n      tag_12\n      jump\t// in\n    tag_11:\n      mload(0x40)\n      dup1\n      swap2\n      sub\n      swap1\n      return\n        /* \"3DataTypes.sol\":446:484  uint8 public MaxUInt = type(uint8).max */\n    tag_4:\n      tag_13\n      tag_14\n      jump\t// in\n    tag_13:\n      mload(0x40)\n      tag_15\n      swap2\n      swap1\n      tag_16\n      jump\t// in\n    tag_15:\n      mload(0x40)\n      dup1\n      swap2\n      sub\n      swap1\n      return\n        /* \"3DataTypes.sol\":577:612  int8 public MaxInt = type(int8).max */\n    tag_5:\n      tag_17\n      tag_18\n      jump\t// in\n    tag_17:\n      mload(0x40)\n      tag_19\n      swap2\n      swap1\n      tag_20\n      jump\t// in\n    tag_19:\n      mload(0x40)\n      dup1\n      swap2\n      sub\n      swap1\n      return\n        /* \"3DataTypes.sol\":770:833  address public add = 0x0000000000000000000000000000000000000000 */\n    tag_6:\n      tag_21\n      tag_22\n      jump\t// in\n    tag_21:\n      mload(0x40)\n      tag_23\n      swap2\n      swap1\n      tag_24\n      jump\t// in\n    tag_23:\n      mload(0x40)\n      dup1\n      swap2\n      sub\n      swap1\n      return\n        /* \"3DataTypes.sol\":490:528  uint8 public minUInt = type(uint8).min */\n    tag_7:\n      tag_25\n      tag_26\n      jump\t// in\n    tag_25:\n      mload(0x40)\n      tag_27\n      swap2\n      swap1\n      tag_16\n      jump\t// in\n    tag_27:\n      mload(0x40)\n      dup1\n      swap2\n      sub\n      swap1\n      return\n        /* \"3DataTypes.sol\":658:693  int8 public MinInt = type(int8).min */\n    tag_8:\n      tag_28\n      tag_29\n      jump\t// in\n    tag_28:\n      mload(0x40)\n      tag_30\n      swap2\n      swap1\n      tag_20\n      jump\t// in\n    tag_30:\n      mload(0x40)\n      dup1\n      swap2\n      sub\n      swap1\n      return\n        /* \"3DataTypes.sol\":741:763  bool public Boo = true */\n    tag_10:\n      0x00\n      0x05\n      swap1\n      sload\n      swap1\n      0x0100\n      exp\n      swap1\n      div\n      0xff\n      and\n      dup2\n      jump\t// out\n        /* \"3DataTypes.sol\":446:484  uint8 public MaxUInt = type(uint8).max */\n    tag_14:\n      0x00\n      0x01\n      swap1\n      sload\n      swap1\n      0x0100\n      exp\n      swap1\n      div\n      0xff\n      and\n      dup2\n      jump\t// out\n        /* \"3DataTypes.sol\":577:612  int8 public MaxInt = type(int8).max */\n    tag_18:\n      0x00\n      0x03\n      swap1\n      sload\n      swap1\n      0x0100\n      exp\n      swap1\n      div\n      0x00\n      signextend\n      dup2\n      jump\t// out\n        /* \"3DataTypes.sol\":770:833  address public add = 0x0000000000000000000000000000000000000000 */\n    tag_22:\n      0x00\n      0x06\n      swap1\n      sload\n      swap1\n      0x0100\n      exp\n      swap1\n      div\n      0xffffffffffffffffffffffffffffffffffffffff\n      and\n      dup2\n      jump\t// out\n        /* \"3DataTypes.sol\":490:528  uint8 public minUInt = type(uint8).min */\n    tag_26:\n      0x00\n      0x02\n      swap1\n      sload\n      swap1\n      0x0100\n      exp\n      swap1\n      div\n      0xff\n      and\n      dup2\n      jump\t// out\n        /* \"3DataTypes.sol\":658:693  int8 public MinInt = type(int8).min */\n    tag_29:\n      0x00\n      0x04\n      swap1\n      sload\n      swap1\n      0x0100\n      exp\n      swap1\n      div\n      0x00\n      signextend\n      dup2\n      jump\t// out\n        /* \"#utility.yul\":7:97   */\n    tag_31:\n        /* \"#utility.yul\":41:48   */\n      0x00\n        /* \"#utility.yul\":84:89   */\n      dup2\n        /* \"#utility.yul\":77:90   */\n      iszero\n        /* \"#utility.yul\":70:91   */\n      iszero\n        /* \"#utility.yul\":59:91   */\n      swap1\n      pop\n        /* \"#utility.yul\":7:97   */\n      swap2\n      swap1\n      pop\n      jump\t// out\n        /* \"#utility.yul\":103:212   */\n    tag_32:\n        /* \"#utility.yul\":184:205   */\n      tag_43\n        /* \"#utility.yul\":199:204   */\n      dup2\n        /* \"#utility.yul\":184:205   */\n      tag_31\n      jump\t// in\n    tag_43:\n        /* \"#utility.yul\":179:182   */\n      dup3\n        /* \"#utility.yul\":172:206   */\n      mstore\n        /* \"#utility.yul\":103:212   */\n      pop\n      pop\n      jump\t// out\n        /* \"#utility.yul\":218:428   */\n    tag_12:\n        /* \"#utility.yul\":305:309   */\n      0x00\n        /* \"#utility.yul\":343:345   */\n      0x20\n        /* \"#utility.yul\":332:341   */\n      dup3\n        /* \"#utility.yul\":328:346   */\n      add\n        /* \"#utility.yul\":320:346   */\n      swap1\n      pop\n        /* \"#utility.yul\":356:421   */\n      tag_45\n        /* \"#utility.yul\":418:419   */\n      0x00\n        /* \"#utility.yul\":407:416   */\n      dup4\n        /* \"#utility.yul\":403:420   */\n      add\n        /* \"#utility.yul\":394:400   */\n      dup5\n        /* \"#utility.yul\":356:421   */\n      tag_32\n      jump\t// in\n    tag_45:\n        /* \"#utility.yul\":218:428   */\n      swap3\n      swap2\n      pop\n      pop\n      jump\t// out\n        /* \"#utility.yul\":434:520   */\n    tag_33:\n        /* \"#utility.yul\":469:476   */\n      0x00\n        /* \"#utility.yul\":509:513   */\n      0xff\n        /* \"#utility.yul\":502:507   */\n      dup3\n        /* \"#utility.yul\":498:514   */\n      and\n        /* \"#utility.yul\":487:514   */\n      swap1\n      pop\n        /* \"#utility.yul\":434:520   */\n      swap2\n      swap1\n      pop\n      jump\t// out\n        /* \"#utility.yul\":526:638   */\n    tag_34:\n        /* \"#utility.yul\":609:631   */\n      tag_48\n        /* \"#utility.yul\":625:630   */\n      dup2\n        /* \"#utility.yul\":609:631   */\n      tag_33\n      jump\t// in\n    tag_48:\n        /* \"#utility.yul\":604:607   */\n      dup3\n        /* \"#utility.yul\":597:632   */\n      mstore\n        /* \"#utility.yul\":526:638   */\n      pop\n      pop\n      jump\t// out\n        /* \"#utility.yul\":644:858   */\n    tag_16:\n        /* \"#utility.yul\":733:737   */\n      0x00\n        /* \"#utility.yul\":771:773   */\n      0x20\n        /* \"#utility.yul\":760:769   */\n      dup3\n        /* \"#utility.yul\":756:774   */\n      add\n        /* \"#utility.yul\":748:774   */\n      swap1\n      pop\n        /* \"#utility.yul\":784:851   */\n      tag_50\n        /* \"#utility.yul\":848:849   */\n      0x00\n        /* \"#utility.yul\":837:846   */\n      dup4\n        /* \"#utility.yul\":833:850   */\n      add\n        /* \"#utility.yul\":824:830   */\n      dup5\n        /* \"#utility.yul\":784:851   */\n      tag_34\n      jump\t// in\n    tag_50:\n        /* \"#utility.yul\":644:858   */\n      swap3\n      swap2\n      pop\n      pop\n      jump\t// out\n        /* \"#utility.yul\":864:953   */\n    tag_35:\n        /* \"#utility.yul\":898:905   */\n      0x00\n        /* \"#utility.yul\":941:946   */\n      dup2\n        /* \"#utility.yul\":938:939   */\n      0x00\n        /* \"#utility.yul\":927:947   */\n      signextend\n        /* \"#utility.yul\":916:947   */\n      swap1\n      pop\n        /* \"#utility.yul\":864:953   */\n      swap2\n      swap1\n      pop\n      jump\t// out\n        /* \"#utility.yul\":959:1068   */\n    tag_36:\n        /* \"#utility.yul\":1040:1061   */\n      tag_53\n        /* \"#utility.yul\":1055:1060   */\n      dup2\n        /* \"#utility.yul\":1040:1061   */\n      tag_35\n      jump\t// in\n    tag_53:\n        /* \"#utility.yul\":1035:1038   */\n      dup3\n        /* \"#utility.yul\":1028:1062   */\n      mstore\n        /* \"#utility.yul\":959:1068   */\n      pop\n      pop\n      jump\t// out\n        /* \"#utility.yul\":1074:1284   */\n    tag_20:\n        /* \"#utility.yul\":1161:1165   */\n      0x00\n        /* \"#utility.yul\":1199:1201   */\n      0x20\n        /* \"#utility.yul\":1188:1197   */\n      dup3\n        /* \"#utility.yul\":1184:1202   */\n      add\n        /* \"#utility.yul\":1176:1202   */\n      swap1\n      pop\n        /* \"#utility.yul\":1212:1277   */\n      tag_55\n        /* \"#utility.yul\":1274:1275   */\n      0x00\n        /* \"#utility.yul\":1263:1272   */\n      dup4\n        /* \"#utility.yul\":1259:1276   */\n      add\n        /* \"#utility.yul\":1250:1256   */\n      dup5\n        /* \"#utility.yul\":1212:1277   */\n      tag_36\n      jump\t// in\n    tag_55:\n        /* \"#utility.yul\":1074:1284   */\n      swap3\n      swap2\n      pop\n      pop\n      jump\t// out\n        /* \"#utility.yul\":1290:1416   */\n    tag_37:\n        /* \"#utility.yul\":1327:1334   */\n      0x00\n        /* \"#utility.yul\":1367:1409   */\n      0xffffffffffffffffffffffffffffffffffffffff\n        /* \"#utility.yul\":1360:1365   */\n      dup3\n        /* \"#utility.yul\":1356:1410   */\n      and\n        /* \"#utility.yul\":1345:1410   */\n      swap1\n      pop\n        /* \"#utility.yul\":1290:1416   */\n      swap2\n      swap1\n      pop\n      jump\t// out\n        /* \"#utility.yul\":1422:1518   */\n    tag_38:\n        /* \"#utility.yul\":1459:1466   */\n      0x00\n        /* \"#utility.yul\":1488:1512   */\n      tag_58\n        /* \"#utility.yul\":1506:1511   */\n      dup3\n        /* \"#utility.yul\":1488:1512   */\n      tag_37\n      jump\t// in\n    tag_58:\n        /* \"#utility.yul\":1477:1512   */\n      swap1\n      pop\n        /* \"#utility.yul\":1422:1518   */\n      swap2\n      swap1\n      pop\n      jump\t// out\n        /* \"#utility.yul\":1524:1642   */\n    tag_39:\n        /* \"#utility.yul\":1611:1635   */\n      tag_60\n        /* \"#utility.yul\":1629:1634   */\n      dup2\n        /* \"#utility.yul\":1611:1635   */\n      tag_38\n      jump\t// in\n    tag_60:\n        /* \"#utility.yul\":1606:1609   */\n      dup3\n        /* \"#utility.yul\":1599:1636   */\n      mstore\n        /* \"#utility.yul\":1524:1642   */\n      pop\n      pop\n      jump\t// out\n        /* \"#utility.yul\":1648:1870   */\n    tag_24:\n        /* \"#utility.yul\":1741:1745   */\n      0x00\n        /* \"#utility.yul\":1779:1781   */\n      0x20\n        /* \"#utility.yul\":1768:1777   */\n      dup3\n        /* \"#utility.yul\":1764:1782   */\n      add\n        /* \"#utility.yul\":1756:1782   */\n      swap1\n      pop\n        /* \"#utility.yul\":1792:1863   */\n      tag_62\n        /* \"#utility.yul\":1860:1861   */\n      0x00\n        /* \"#utility.yul\":1849:1858   */\n      dup4\n        /* \"#utility.yul\":1845:1862   */\n      add\n        /* \"#utility.yul\":1836:1842   */\n      dup5\n        /* \"#utility.yul\":1792:1863   */\n      tag_39\n      jump\t// in\n    tag_62:\n        /* \"#utility.yul\":1648:1870   */\n      swap3\n      swap2\n      pop\n      pop\n      jump\t// out\n\n    auxdata: 0xa2646970667358221220e3d3d51757d05fd1555f6275ab5046decc4bfc8fc8665e64d29201a0ea92831b64736f6c634300081a0033\n}\n",
				"bytecode": {
					"linkReferences": {},
					"object": "608060405260015f806101000a81548160ff021916908360ff16021790555060ff5f60016101000a81548160ff021916908360ff1602179055505f8060026101000a81548160ff021916908360ff160217905550607f5f60036101000a81548160ff02191690835f0b60ff1602179055507fffffffffffffffffffffffffffffffffffffffffffffffffffffffffffffff805f60046101000a81548160ff02191690835f0b60ff16021790555060015f60056101000a81548160ff0219169083151502179055505f8060066101000a81548173ffffffffffffffffffffffffffffffffffffffff021916908373ffffffffffffffffffffffffffffffffffffffff16021790555060b560f81b5f601a6101000a81548160ff021916908360f81c021790555060e260f81b5f601b6101000a81548160ff021916908360f81c021790555034801561014d575f80fd5b506102bd8061015b5f395ff3fe608060405234801561000f575f80fd5b5060043610610060575f3560e01c806308112fe31461006457806317b73261146100825780633bead474146100a05780634f2be91f146100be5780638e93b09e146100dc578063ba154365146100fa575b5f80fd5b61006c610118565b60405161007991906101af565b60405180910390f35b61008a61012a565b60405161009791906101e3565b60405180910390f35b6100a861013c565b6040516100b59190610216565b60405180910390f35b6100c661014d565b6040516100d3919061026e565b60405180910390f35b6100e4610172565b6040516100f191906101e3565b60405180910390f35b610102610184565b60405161010f9190610216565b60405180910390f35b5f60059054906101000a900460ff1681565b5f60019054906101000a900460ff1681565b5f60039054906101000a90045f0b81565b5f60069054906101000a900473ffffffffffffffffffffffffffffffffffffffff1681565b5f60029054906101000a900460ff1681565b5f60049054906101000a90045f0b81565b5f8115159050919050565b6101a981610195565b82525050565b5f6020820190506101c25f8301846101a0565b92915050565b5f60ff82169050919050565b6101dd816101c8565b82525050565b5f6020820190506101f65f8301846101d4565b92915050565b5f815f0b9050919050565b610210816101fc565b82525050565b5f6020820190506102295f830184610207565b92915050565b5f73ffffffffffffffffffffffffffffffffffffffff82169050919050565b5f6102588261022f565b9050919050565b6102688161024e565b82525050565b5f6020820190506102815f83018461025f565b9291505056fea2646970667358221220e3d3d51757d05fd1555f6275ab5046decc4bfc8fc8665e64d29201a0ea92831b64736f6c634300081a0033",
					"opcodes": "PUSH1 0x80 PUSH1 0x40 MSTORE PUSH1 0x1 PUSH0 DUP1 PUSH2 0x100 EXP DUP2 SLOAD DUP2 PUSH1 0xFF MUL NOT AND SWAP1 DUP4 PUSH1 0xFF AND MUL OR SWAP1 SSTORE POP PUSH1 0xFF PUSH0 PUSH1 0x1 PUSH2 0x100 EXP DUP2 SLOAD DUP2 PUSH1 0xFF MUL NOT AND SWAP1 DUP4 PUSH1 0xFF AND MUL OR SWAP1 SSTORE POP PUSH0 DUP1 PUSH1 0x2 PUSH2 0x100 EXP DUP2 SLOAD DUP2 PUSH1 0xFF MUL NOT AND SWAP1 DUP4 PUSH1 0xFF AND MUL OR SWAP1 SSTORE POP PUSH1 0x7F PUSH0 PUSH1 0x3 PUSH2 0x100 EXP DUP2 SLOAD DUP2 PUSH1 0xFF MUL NOT AND SWAP1 DUP4 PUSH0 SIGNEXTEND PUSH1 0xFF AND MUL OR SWAP1 SSTORE POP PUSH32 0xFFFFFFFFFFFFFFFFFFFFFFFFFFFFFFFFFFFFFFFFFFFFFFFFFFFFFFFFFFFFFF80 PUSH0 PUSH1 0x4 PUSH2 0x100 EXP DUP2 SLOAD DUP2 PUSH1 0xFF MUL NOT AND SWAP1 DUP4 PUSH0 SIGNEXTEND PUSH1 0xFF AND MUL OR SWAP1 SSTORE POP PUSH1 0x1 PUSH0 PUSH1 0x5 PUSH2 0x100 EXP DUP2 SLOAD DUP2 PUSH1 0xFF MUL NOT AND SWAP1 DUP4 ISZERO ISZERO MUL OR SWAP1 SSTORE POP PUSH0 DUP1 PUSH1 0x6 PUSH2 0x100 EXP DUP2 SLOAD DUP2 PUSH20 0xFFFFFFFFFFFFFFFFFFFFFFFFFFFFFFFFFFFFFFFF MUL NOT AND SWAP1 DUP4 PUSH20 0xFFFFFFFFFFFFFFFFFFFFFFFFFFFFFFFFFFFFFFFF AND MUL OR SWAP1 SSTORE POP PUSH1 0xB5 PUSH1 0xF8 SHL PUSH0 PUSH1 0x1A PUSH2 0x100 EXP DUP2 SLOAD DUP2 PUSH1 0xFF MUL NOT AND SWAP1 DUP4 PUSH1 0xF8 SHR MUL OR SWAP1 SSTORE POP PUSH1 0xE2 PUSH1 0xF8 SHL PUSH0 PUSH1 0x1B PUSH2 0x100 EXP DUP2 SLOAD DUP2 PUSH1 0xFF MUL NOT AND SWAP1 DUP4 PUSH1 0xF8 SHR MUL OR SWAP1 SSTORE POP CALLVALUE DUP1 ISZERO PUSH2 0x14D JUMPI PUSH0 DUP1 REVERT JUMPDEST POP PUSH2 0x2BD DUP1 PUSH2 0x15B PUSH0 CODECOPY PUSH0 RETURN INVALID PUSH1 0x80 PUSH1 0x40 MSTORE CALLVALUE DUP1 ISZERO PUSH2 0xF JUMPI PUSH0 DUP1 REVERT JUMPDEST POP PUSH1 0x4 CALLDATASIZE LT PUSH2 0x60 JUMPI PUSH0 CALLDATALOAD PUSH1 0xE0 SHR DUP1 PUSH4 0x8112FE3 EQ PUSH2 0x64 JUMPI DUP1 PUSH4 0x17B73261 EQ PUSH2 0x82 JUMPI DUP1 PUSH4 0x3BEAD474 EQ PUSH2 0xA0 JUMPI DUP1 PUSH4 0x4F2BE91F EQ PUSH2 0xBE JUMPI DUP1 PUSH4 0x8E93B09E EQ PUSH2 0xDC JUMPI DUP1 PUSH4 0xBA154365 EQ PUSH2 0xFA JUMPI JUMPDEST PUSH0 DUP1 REVERT JUMPDEST PUSH2 0x6C PUSH2 0x118 JUMP JUMPDEST PUSH1 0x40 MLOAD PUSH2 0x79 SWAP2 SWAP1 PUSH2 0x1AF JUMP JUMPDEST PUSH1 0x40 MLOAD DUP1 SWAP2 SUB SWAP1 RETURN JUMPDEST PUSH2 0x8A PUSH2 0x12A JUMP JUMPDEST PUSH1 0x40 MLOAD PUSH2 0x97 SWAP2 SWAP1 PUSH2 0x1E3 JUMP JUMPDEST PUSH1 0x40 MLOAD DUP1 SWAP2 SUB SWAP1 RETURN JUMPDEST PUSH2 0xA8 PUSH2 0x13C JUMP JUMPDEST PUSH1 0x40 MLOAD PUSH2 0xB5 SWAP2 SWAP1 PUSH2 0x216 JUMP JUMPDEST PUSH1 0x40 MLOAD DUP1 SWAP2 SUB SWAP1 RETURN JUMPDEST PUSH2 0xC6 PUSH2 0x14D JUMP JUMPDEST PUSH1 0x40 MLOAD PUSH2 0xD3 SWAP2 SWAP1 PUSH2 0x26E JUMP JUMPDEST PUSH1 0x40 MLOAD DUP1 SWAP2 SUB SWAP1 RETURN JUMPDEST PUSH2 0xE4 PUSH2 0x172 JUMP JUMPDEST PUSH1 0x40 MLOAD PUSH2 0xF1 SWAP2 SWAP1 PUSH2 0x1E3 JUMP JUMPDEST PUSH1 0x40 MLOAD DUP1 SWAP2 SUB SWAP1 RETURN JUMPDEST PUSH2 0x102 PUSH2 0x184 JUMP JUMPDEST PUSH1 0x40 MLOAD PUSH2 0x10F SWAP2 SWAP1 PUSH2 0x216 JUMP JUMPDEST PUSH1 0x40 MLOAD DUP1 SWAP2 SUB SWAP1 RETURN JUMPDEST PUSH0 PUSH1 0x5 SWAP1 SLOAD SWAP1 PUSH2 0x100 EXP SWAP1 DIV PUSH1 0xFF AND DUP2 JUMP JUMPDEST PUSH0 PUSH1 0x1 SWAP1 SLOAD SWAP1 PUSH2 0x100 EXP SWAP1 DIV PUSH1 0xFF AND DUP2 JUMP JUMPDEST PUSH0 PUSH1 0x3 SWAP1 SLOAD SWAP1 PUSH2 0x100 EXP SWAP1 DIV PUSH0 SIGNEXTEND DUP2 JUMP JUMPDEST PUSH0 PUSH1 0x6 SWAP1 SLOAD SWAP1 PUSH2 0x100 EXP SWAP1 DIV PUSH20 0xFFFFFFFFFFFFFFFFFFFFFFFFFFFFFFFFFFFFFFFF AND DUP2 JUMP JUMPDEST PUSH0 PUSH1 0x2 SWAP1 SLOAD SWAP1 PUSH2 0x100 EXP SWAP1 DIV PUSH1 0xFF AND DUP2 JUMP JUMPDEST PUSH0 PUSH1 0x4 SWAP1 SLOAD SWAP1 PUSH2 0x100 EXP SWAP1 DIV PUSH0 SIGNEXTEND DUP2 JUMP JUMPDEST PUSH0 DUP2 ISZERO ISZERO SWAP1 POP SWAP2 SWAP1 POP JUMP JUMPDEST PUSH2 0x1A9 DUP2 PUSH2 0x195 JUMP JUMPDEST DUP3 MSTORE POP POP JUMP JUMPDEST PUSH0 PUSH1 0x20 DUP3 ADD SWAP1 POP PUSH2 0x1C2 PUSH0 DUP4 ADD DUP5 PUSH2 0x1A0 JUMP JUMPDEST SWAP3 SWAP2 POP POP JUMP JUMPDEST PUSH0 PUSH1 0xFF DUP3 AND SWAP1 POP SWAP2 SWAP1 POP JUMP JUMPDEST PUSH2 0x1DD DUP2 PUSH2 0x1C8 JUMP JUMPDEST DUP3 MSTORE POP POP JUMP JUMPDEST PUSH0 PUSH1 0x20 DUP3 ADD SWAP1 POP PUSH2 0x1F6 PUSH0 DUP4 ADD DUP5 PUSH2 0x1D4 JUMP JUMPDEST SWAP3 SWAP2 POP POP JUMP JUMPDEST PUSH0 DUP2 PUSH0 SIGNEXTEND SWAP1 POP SWAP2 SWAP1 POP JUMP JUMPDEST PUSH2 0x210 DUP2 PUSH2 0x1FC JUMP JUMPDEST DUP3 MSTORE POP POP JUMP JUMPDEST PUSH0 PUSH1 0x20 DUP3 ADD SWAP1 POP PUSH2 0x229 PUSH0 DUP4 ADD DUP5 PUSH2 0x207 JUMP JUMPDEST SWAP3 SWAP2 POP POP JUMP JUMPDEST PUSH0 PUSH20 0xFFFFFFFFFFFFFFFFFFFFFFFFFFFFFFFFFFFFFFFF DUP3 AND SWAP1 POP SWAP2 SWAP1 POP JUMP JUMPDEST PUSH0 PUSH2 0x258 DUP3 PUSH2 0x22F JUMP JUMPDEST SWAP1 POP SWAP2 SWAP1 POP JUMP JUMPDEST PUSH2 0x268 DUP2 PUSH2 0x24E JUMP JUMPDEST DUP3 MSTORE POP POP JUMP JUMPDEST PUSH0 PUSH1 0x20 DUP3 ADD SWAP1 POP PUSH2 0x281 PUSH0 DUP4 ADD DUP5 PUSH2 0x25F JUMP JUMPDEST SWAP3 SWAP2 POP POP JUMP INVALID LOG2 PUSH5 0x6970667358 0x22 SLT KECCAK256 0xE3 0xD3 0xD5 OR JUMPI 0xD0 PUSH0 0xD1 SSTORE PUSH0 PUSH3 0x75AB50 CHAINID 0xDE 0xCC 0x4B 0xFC DUP16 0xC8 PUSH7 0x5E64D29201A0EA SWAP3 DUP4 SHL PUSH5 0x736F6C6343 STOP ADDMOD BYTE STOP CALLER "
				},
				"gasEstimates": {
					"creation": {
						"codeDepositCost": "140200",
						"executionCost": "219001",
						"totalCost": "359201"
					},
					"external": {
						"Boo()": "2494",
						"MaxInt()": "2540",
						"MaxUInt()": "2516",
						"MinInt()": "2606",
						"add()": "2602",
						"minUInt()": "2582"
					}
				},
				"methodIdentifiers": {
					"Boo()": "08112fe3",
					"MaxInt()": "3bead474",
					"MaxUInt()": "17b73261",
					"MinInt()": "ba154365",
					"add()": "4f2be91f",
					"minUInt()": "8e93b09e"
				}
			},
			"storageLayout": {
				"storage": [
					{
						"astId": 4,
						"contract": "3DataTypes.sol:DataTypes",
						"label": "one",
						"offset": 0,
						"slot": "0",
						"type": "t_uint8"
					},
					{
						"astId": 11,
						"contract": "3DataTypes.sol:DataTypes",
						"label": "MaxUInt",
						"offset": 1,
						"slot": "0",
						"type": "t_uint8"
					},
					{
						"astId": 18,
						"contract": "3DataTypes.sol:DataTypes",
						"label": "minUInt",
						"offset": 2,
						"slot": "0",
						"type": "t_uint8"
					},
					{
						"astId": 25,
						"contract": "3DataTypes.sol:DataTypes",
						"label": "MaxInt",
						"offset": 3,
						"slot": "0",
						"type": "t_int8"
					},
					{
						"astId": 32,
						"contract": "3DataTypes.sol:DataTypes",
						"label": "MinInt",
						"offset": 4,
						"slot": "0",
						"type": "t_int8"
					},
					{
						"astId": 35,
						"contract": "3DataTypes.sol:DataTypes",
						"label": "Boo",
						"offset": 5,
						"slot": "0",
						"type": "t_bool"
					},
					{
						"astId": 38,
						"contract": "3DataTypes.sol:DataTypes",
						"label": "add",
						"offset": 6,
						"slot": "0",
						"type": "t_address"
					},
					{
						"astId": 41,
						"contract": "3DataTypes.sol:DataTypes",
						"label": "a",
						"offset": 26,
						"slot": "0",
						"type": "t_bytes1"
					},
					{
						"astId": 44,
						"contract": "3DataTypes.sol:DataTypes",
						"label": "b",
						"offset": 27,
						"slot": "0",
						"type": "t_bytes1"
					}
				],
				"types": {
					"t_address": {
						"encoding": "inplace",
						"label": "address",
						"numberOfBytes": "20"
					},
					"t_bool": {
						"encoding": "inplace",
						"label": "bool",
						"numberOfBytes": "1"
					},
					"t_bytes1": {
						"encoding": "inplace",
						"label": "bytes1",
						"numberOfBytes": "1"
					},
					"t_int8": {
						"encoding": "inplace",
						"label": "int8",
						"numberOfBytes": "1"
					},
					"t_uint8": {
						"encoding": "inplace",
						"label": "uint8",
						"numberOfBytes": "1"
					}
				}
			},
			"userdoc": {
				"kind": "user",
				"methods": {},
				"version": 1
			}
		}
	}
}