{
	"data": {
		"bytecode": {
			"linkReferences": {},
			"object": "608060405260085f806101000a81548160ff021916908360ff1602179055503480156028575f80fd5b5060de806100355f395ff3fe6080604052348015600e575f80fd5b50600436106030575f3560e01c80632146cf78146034578063cb94343e14603c575b5f80fd5b603a6056565b005b60426068565b604051604d91906091565b60405180910390f35b5f600490505f4290505f339050505050565b5f8054906101000a900460ff1681565b5f60ff82169050919050565b608b816078565b82525050565b5f60208201905060a25f8301846084565b9291505056fea26469706673582212207793d40922dd799181ff2557fe9c3024994a7160e22fbe64f4b43f5d16abcbd564736f6c634300081a0033",
			"opcodes": "PUSH1 0x80 PUSH1 0x40 MSTORE PUSH1 0x8 PUSH0 DUP1 PUSH2 0x100 EXP DUP2 SLOAD DUP2 PUSH1 0xFF MUL NOT AND SWAP1 DUP4 PUSH1 0xFF AND MUL OR SWAP1 SSTORE POP CALLVALUE DUP1 ISZERO PUSH1 0x28 JUMPI PUSH0 DUP1 REVERT JUMPDEST POP PUSH1 0xDE DUP1 PUSH2 0x35 PUSH0 CODECOPY PUSH0 RETURN INVALID PUSH1 0x80 PUSH1 0x40 MSTORE CALLVALUE DUP1 ISZERO PUSH1 0xE JUMPI PUSH0 DUP1 REVERT JUMPDEST POP PUSH1 0x4 CALLDATASIZE LT PUSH1 0x30 JUMPI PUSH0 CALLDATALOAD PUSH1 0xE0 SHR DUP1 PUSH4 0x2146CF78 EQ PUSH1 0x34 JUMPI DUP1 PUSH4 0xCB94343E EQ PUSH1 0x3C JUMPI JUMPDEST PUSH0 DUP1 REVERT JUMPDEST PUSH1 0x3A PUSH1 0x56 JUMP JUMPDEST STOP JUMPDEST PUSH1 0x42 PUSH1 0x68 JUMP JUMPDEST PUSH1 0x40 MLOAD PUSH1 0x4D SWAP2 SWAP1 PUSH1 0x91 JUMP JUMPDEST PUSH1 0x40 MLOAD DUP1 SWAP2 SUB SWAP1 RETURN JUMPDEST PUSH0 PUSH1 0x4 SWAP1 POP PUSH0 TIMESTAMP SWAP1 POP PUSH0 CALLER SWAP1 POP POP POP POP JUMP JUMPDEST PUSH0 DUP1 SLOAD SWAP1 PUSH2 0x100 EXP SWAP1 DIV PUSH1 0xFF AND DUP2 JUMP JUMPDEST PUSH0 PUSH1 0xFF DUP3 AND SWAP1 POP SWAP2 SWAP1 POP JUMP JUMPDEST PUSH1 0x8B DUP2 PUSH1 0x78 JUMP JUMPDEST DUP3 MSTORE POP POP JUMP JUMPDEST PUSH0 PUSH1 0x20 DUP3 ADD SWAP1 POP PUSH1 0xA2 PUSH0 DUP4 ADD DUP5 PUSH1 0x84 JUMP JUMPDEST SWAP3 SWAP2 POP POP JUMP INVALID LOG2 PUSH5 0x6970667358 0x22 SLT KECCAK256 PUSH24 0x93D40922DD799181FF2557FE9C3024994A7160E22FBE64F4 0xB4 EXTCODEHASH TSTORE AND 0xAB 0xCB 0xD5 PUSH5 0x736F6C6343 STOP ADDMOD BYTE STOP CALLER "
		},
		"gasEstimates": {
			"creation": {
				"codeDepositCost": "44400",
				"executionCost": "24357",
				"totalCost": "68757"
			},
			"external": {
				"DoSomething()": "155",
				"eight()": "2463"
			}
		},
		"methodIdentifiers": {
			"DoSomething()": "2146cf78",
			"eight()": "cb94343e"
		}
	},
	"abi": [
		{
			"inputs": [],
			"name": "DoSomething",
			"outputs": [],
			"stateMutability": "view",
			"type": "function"
		},
		{
			"inputs": [],
			"name": "eight",
			"outputs": [
				{
					"internalType": "uint8",
					"name": "",
					"type": "uint8"
				}
			],
			"stateMutability": "view",
			"type": "function"
		}
	]
}